:100000000A128A11F42F00308A000408840A820739
:100010000034413454342B34433457344A3441345B
:1000200050343D3427344D3449346E3463342034F5
:100030004D346F34623469346C34653427342C3475
:1000400027346F346C3475347734613473346534E9
:1000500075346E3427340034573469344634693487
:10006000203443346F346E346E3465346334743406
:1000700020344634613469346C34003445345334AC
:100080005034203452346534733470346F346E34E9
:1000900073346534203442346134643400344F3472
:1000A000703420344D346F34643465342034533428
:1000B0006534743420344634613469346C3400342B
:1000C0004434453456344934433445343A34203486
:1000D0004D3449346E3463342034443465347634DA
:1000E000003445345334503420345234653473343E
:1000F00070346F346E347334653420344F344B3481
:1001000000345734693446346934203443346F340E
:100110006E346E3465346334743420344F344B346D
:100120000034533465346E346434203441345434F0
:10013000203443346F346D346D3461346E34643440
:1001400000345334543441345434553453343A34F1
:1001500020344F34663466346C3469346E3465341C
:1001600000345734693446346934203443346F34AE
:100170006E346E3465346334743469346F346E3481
:1001800000344F34703420344D346F34643465346B
:10019000203453346534743420344F344B340034B9
:1001A00053346534743420344F3470342E34203456
:1001B0004D346F34643465340034413454342B345A
:1001C000433457344D344F34443445343D34333460
:0E01D00000340A340D34003441345434003409
:1004DC000030831203138C1A0130080083120313AB
:1004EC008C1E742A1A080800F00083160313981C3B
:1004FC007B2A7008831203139900080000300A123B
:10050C008A11A9220A128A1101300A128A11A9220F
:10051C000800F000701C962A831203130816992AFF
:10052C00831203130812F01C9D2A88169E2A881227
:10053C00701DA22A0817A32A0813F01DA72A8817D2
:10054C00080088130800F3008312031308117308C2
:10055C000A128A118F220A128A1183120313881528
:10056C001A30F200F830F100F10BBA2AF20BBA2A69
:10057C0000008312031388110800F6007608F400BB
:10058C007408F5000130F2020030031CF303F3028F
:10059C00720A0319730A031908007008F40075082D
:1005AC0084007408831380000130F4007408F5078C
:1005BC00C82AF700F501F6017508770784000A12BE
:1005CC008A1103200A128A11003A031908007508CF
:1005DC00770784000A128A1103200A128A110A1260
:1005EC008A1174230A128A110130F5070318F60ACE
:1005FC000030F607E22AF300F101F20171087307EB
:10060C0084000A128A1103200A128A11003A031973
:10061C0008007108730784000A128A1103200A1259
:10062C008A110A128A117A220A128A110130F107F0
:10063C000318F20A0030F207042BF300F401F50161
:10064C000A128A1174220A128A11F0007008F20040
:10065C007208F00074087307F100710884007008C8
:10066C00831380000130F4070318F50A0030F507F6
:10067C007508803AFF0080307F02031D472B023043
:10068C00740203180800262BF500542B0130F200DD
:10069C007208F5070130F2007208F0077508840043
:1006AC0083130008F200700884000A128A110320D8
:1006BC000A128A11FF3A013E7207F3007308F40024
:1006CC007408031D6E2B750884000008031D4C2B49
:1006DC007408F000F101F01BF1030800F400740839
:1006EC000F39F1007108F2007408F039F10071084B
:1006FC00F3008312031308157308F1000430031080
:10070C00F10CFF3E031D852B71080A128A118F22F2
:10071C000A128A118312031388154230F100F10B6F
:10072C00952B000083120313881172080A128A1188
:10073C008F220A128A118312031388154230F1009A
:10074C00F10BA62B00008312031388110800F7008D
:10075C007703031DD22B74087F3EF5007508FA0051
:10076C007A08F50004300310F50CFF3E031DB92B7D
:10077C007508F6007608F8007A080F39F500750848
:10078C00F90078080A128A11A9220A128A1179082A
:10079C000A128A11A922080002307706031D0800EC
:1007AC007408BF3EF5007508FA007A08F5000430AD
:1007BC000310F50CFF3E031DDE2B7508F6007608C2
:1007CC00F8007A080F39F5007508F90078080A1254
:1007DC008A11A9220A128A1179080A128A11A922ED
:1007EC00080000300A128A118F220A128A118230F4
:1007FC00F500DD30F400F40B012CF50B012C062C6C
:10080C0003300A128A11A9220A128A112130F5002A
:10081C007630F400F40B102CF50B102C0000033088
:10082C000A128A11A9220A128A114830F5006C307A
:10083C00F400F40B1F2CF50B1F2C000003300A12D4
:10084C008A11A9220A128A1102300A128A11A922CB
:10085C000A128A1102300A128A11A9220A128A116A
:10086C0008300A128A11A9220A128A1100300A12BF
:10087C008A11A9220A128A110C300A128A11A92291
:10088C000A128A1100300A128A11A9220A128A113C
:10089C0006300A128A11A922080083120313A1013F
:1008AC00F31F652CF009F109F209F309F00A031999
:1008BC00F10A0319F20A0319F30AA101A10AF71F9D
:1008CC00762CF409F509F609F709F40A0319F50A67
:1008DC000319F60A0319F70A0130F8007808A10683
:1008EC000030A5000030A4000030A3000030A200AE
:1008FC0073087204710470040319CB2CA001A00AB4
:10090C00F31B962C0130F8000310F00DF10DF20DD5
:10091C00F30DF80B8A2C0130F8007808A007862C10
:10092C000130F8000310A20DA30DA40DA50DF80BBA
:10093C00982C73087702031DAD2C72087602031DE8
:10094C00AD2C71087502031DAD2C70087402031CCC
:10095C00BE2C7008F4027108031C710FF5027208AA
:10096C00031C720FF6027308031C730FF702221498
:10097C0001300310F30CF20CF10CF00CFF3E031DD4
:10098C00BF2C0130A002031D962C21080319D92C71
:10099C00A209A309A409A509A20A0319A30A031908
:1009AC00A40A0319A50A2508F3002408F200230859
:1009BC00F1002208F0000800831203132608AA0095
:1009CC002708AB002808AC002908AD00063003103E
:1009DC00AA0DAB0DAC0DAD0DFF3E031DED2C2D087E
:1009EC00F3002C08F2002B08F1002A08F00000306C
:1009FC00AE002D30AF003130B0000130B100260810
:100A0C00B2002708B3002808B4002908B500063046
:100A1C000310B20DB30DB40DB50DFF3E031D0E2D1D
:100A2C00B209B309B409B509B20A0319B30A031917
:100A3C00B40A0319B50A3208AE0733080318330F8A
:100A4C00282D292DAF0734080318340F2E2D2F2DE8
:100A5C00B00735080318350AB1073108F70030081C
:100A6C00F6002F08F5002E08F4000A128A11532400
:100A7C000A128A117108FA007008F90001307A0222
:100A8C00003003197902031CB02D831203132608BE
:100A9C00AA002708AB002808AC002908AD000430D8
:100AAC000310AA0DAB0DAC0DAD0DFF3E031D562D65
:100ABC002D08F3002C08F2002B08F1002A08F00096
:100ACC000030AE002D30AF003130B0000130B1003D
:100ADC002608B2002708B3002808B4002908B5007E
:100AEC0004300310B20DB30DB40DB50DFF3E031D54
:100AFC00772DB209B309B409B509B20A0319B30ABF
:100B0C000319B40A0319B50A3208AE0733080318DF
:100B1C00330F912D922DAF0734080318340F972DF6
:100B2C00982DB00735080318350AB1073108F700BE
:100B3C003008F6002F08F5002E08F4000A128A116E
:100B4C0053240A128A117108FA007008F9008316EE
:100B5C000313181501307A020030031979020318B7
:100B6C0008007908831603139900181283120313D3
:100B7C00981783160313871707138312031318167A
:100B8C00831603139816080083120313B701B801D8
:100B9C00B901B6018316031388010A128A11F723CF
:100BAC000A128A110330FD008A30FC005530FB001C
:100BBC00FB0BDE2DFC0BDE2DFD0BDE2DE52D0030B1
:100BCC0083120313A9000030A8002530A700803041
:100BDC00A6000A128A11E2240A128A110330FD00BF
:100BEC008A30FC005530FB00FB0BFA2DFC0BFA2D68
:100BFC00FD0BFA2D012E0A128A1184220A128A1177
:100C0C00F401F40A01300A128A11AD230A128A1176
:100C1C0058300A128A11DF220A128A11F401F40ADE
:100C2C0002300A128A11AD230A128A1199300A1263
:100C3C008A11DF220A128A114030FD006A30FC0052
:100C4C009730FB00FB0B282EFC0B282EFD0B282EBF
:100C5C002F2E831203133708031D572F0A128A11E4
:100C6C0084220A128A11F401F40A01300A128A1140
:100C7C00AD230A128A1189300A128A11DF220A1254
:100C8C008A110330FD008A30FC005530FB00FB0B51
:100C9C004D2EFC0B4D2EFD0B4D2E542EE4300A1216
:100CAC008A1101230A128A11E1300A128A110123D6
:100CBC000A128A110A128A116E220A128A11003A39
:100CCC000319602E0A128A116E220A128A11003A36
:100CDC0003192F2E0030F000F1000830F200003024
:100CEC00F3003A300A128A11C3220A128A113A30DE
:100CFC000A128A1123230A128A111A30FD005E305F
:100D0C00FC006E30FB00FB0B892EFC0B892EFD0BBF
:100D1C00892E0000F401F40A02300A128A11AD2364
:100D2C000A128A117630FB007B08F0003A300A1266
:100D3C008A114A230A128A1170087104031DAC2E01
:100D4C0083120313B701B70A6930AD2E36300A127D
:100D5C008A11DF220A128A11E1300A128A11012348
:100D6C000A128A112730FD000D30FC002630FB00E2
:100D7C00FB0BBE2EFC0BBE2EFD0BBE2E00002F2E31
:100D8C000A128A1184220A128A11F401F40A01301F
:100D9C000A128A11AD230A128A11C8300A128A115A
:100DAC00DF220A128A110330FD008A30FC00553014
:100DBC00FB00FB0BDF2EFC0BDF2EFD0BDF2EE62EDC
:100DCC00D5300A128A1101230A128A11E1300A1253
:100DDC008A1101230A128A110A128A116E220A122E
:100DEC008A11003A0319F22E0A128A116E220A1283
:100DFC008A11003A0319572F0030F000F100083027
:100E0C00F2000030F3003A300A128A11C3220A129F
:100E1C008A113A300A128A1123230A128A111A30C3
:100E2C00FD005E30FC006E30FB00FB0B1B2FFC0B3F
:100E3C001B2FFD0B1B2F0000F401F40A02300A12C9
:100E4C008A11AD230A128A117630FB007B08F00060
:100E5C003A300A128A114A230A128A117008710454
:100E6C00031D3E2F83120313B801B80AB9303F2F6C
:100E7C0047300A128A11DF220A128A11E1300A1253
:100E8C008A1101230A128A112730FD000D30FC0053
:100E9C002630FB00FB0B502FFC0B502FFD0B502F63
:100EAC000000831203133808031DEE2FC62E0A12FE
:100EBC008A1184220A128A11F401F40A01300A12EE
:100ECC008A11AD230A128A11A9300A128A11DF2263
:100EDC000A128A110330FD008A30FC005530FB00E9
:100EEC00FB0B762FFC0B762FFD0B762F7D2F013015
:100EFC000A128A1101230A128A11E1300A128A118C
:100F0C0001230A128A110A128A116E220A128A11FC
:100F1C00003A0319892F0A128A116E220A128A11B9
:100F2C00003A0319EE2F0030F000F1000830F20007
:100F3C000030F3003A300A128A11C3220A128A11C5
:100F4C003A300A128A1123230A128A111A30FD0030
:100F5C005E30FC006E30FB00FB0BB22FFC0BB22F93
:100F6C00FD0BB22F0000F401F40A02300A128A11B0
:100F7C00AD230A128A117630FB007B08F0003A3060
:100F8C000A128A114A230A128A1170087104031D6D
:100F9C00D52F83120313B901B90A7930D62F243017
:100FAC000A128A11DF220A128A11E1300A128A11FE
:100FBC0001230A128A112730FD000D30FC00263067
:100FCC00FB00FB0BE72FFC0BE72FFD0BE72F0000C3
:100FDC00831203133908031D2F2E5D2FBA01BB0199
:100FEC00BC01BD01BE01BF01C001C10183010A12D8
:040FFC008A11CA2D5F
:02400E00BA3FB7
:00000001FF
