:100000000A128A11F42FFF1B0D2883137F18831700
:100010000008840A0319FF0A080000308A00040857
:10002000840A82070034413454342B344334573427
:100030004A34413450343D3427344D3449346E34DD
:10004000633420344D346F34623469346C34653435
:1000500027342C3427346F346C347534773461345E
:100060007334653475346E3427340034573469344E
:1000700046346934203443346F346E346E3465341E
:100080006334743420344634613469346C3400345D
:10009000453453345034203452346534733470341E
:1000A0006F346E34733465342034423461346434D4
:1000B00000344F34703420344D346F34643465343C
:1000C0002034533465347434203446346134693414
:1000D0006C34003444344534563449344334453464
:1000E0003A3420344D3449346E346334203444344B
:1000F000653476340034453453345034203452342B
:100100006534733470346F346E3473346534203432
:100110004F344B3400345734693446346934203416
:1001200043346F346E346E34653463347434203445
:100130004F344B340034533465346E3464342034DB
:1001400041345434203443346F346D346D3461346D
:100150006E3464340034533454344134543455349C
:1001600053343A3420344F34663466346C34693452
:100170006E3465340034573469344634693420347D
:1001800043346F346E346E3465346334743469349C
:100190006F346E3400344F34703420344D346F3447
:1001A00064346534203453346534743420344F342B
:1001B0004B34003453346534743420344F34703449
:1001C0002E3420344D346F3464346534003441347B
:1001D00054342B34433457344D344F344434453441
:0C01E0003D3433340034413454340034D6
:1003F8000030831203138C1A013008008312031390
:100408008C1E022A1A080800F00083160313981C91
:10041800092A7008831203139900080000300A1291
:100428008A1137220A128A1101300A128A113722D8
:100438000800F000701C242A831203130816272AC8
:10044800831203130812F01C2B2A88162C2A8812F0
:10045800701D302A0817312A0813F01D352A88170D
:10046800080088130800F3008312031308117308A7
:100478000A128A111D220A128A118312031388157F
:100488001D30F200B830F100F10B482AF20B482A6F
:1004980000008312031388110800F6007608F400A0
:1004A8007408F5000130F2020030031CF303F30274
:1004B800720A0319730A031908007008F400750812
:1004C80084007408831380000130F4007408F50771
:1004D800562AF300F101F2017108730784000A1229
:1004E8008A110D200A128A11003A031908007108AE
:1004F800730784000A128A110D200A128A110A123F
:100508008A1108220A128A110130F1070318F20A27
:100518000030F207702AF300F401F5010A128A117B
:1005280002220A128A11F0007008F2007208F00024
:1005380074087307F1007108840070088313800041
:100548000130F4070318F50A0030F5077508803AFA
:10055800FF0080307F02031DB32A023074020318A3
:100568000800922AF500C02A0130F2007208F50747
:100578000130F2007208F007750884008313000840
:10058800F200700884000A128A110D200A128A11DA
:10059800FF3A013E7207F3007308F4007408031D64
:1005A800DA2A750884000008031DB82A7408F000C8
:1005B800F101F01BF1030800F40074080F39F10091
:1005C8007108F2007408F039F1007108F300831221
:1005D800031308157308F10004300310F10CFF3EF3
:1005E800031DF12A71080A128A111D220A128A11A2
:1005F8008312031388154930F100F10B012B000019
:1006080083120313881172080A128A111D220A1212
:100618008A118312031388154930F100F10B122B4C
:1006280000008312031388110800FA01FB017A08FD
:100638007507F8007608F7000318F70AFA1BF7039E
:100648007708F900790883120313FF0078088400FB
:100658000A128A1103200A128A11003A03190800A3
:100668007A087507F8007608F7000318F70AFA1BE6
:10067800F7037708F900790883120313FF00780855
:1006880084000A128A1103200A128A110A128A1196
:10069800E0220A128A110130FA070318FB0A003017
:1006A800FB071B2BF7007703031D7B2B74087F3E8A
:1006B800F5007508FA007A08F50004300310F50C07
:1006C800FF3E031D622B7508F6007608F8007A08CD
:1006D8000F39F5007508F90078080A128A113722CF
:1006E8000A128A1179080A128A1137220800023080
:1006F8007706031D08007408BF3EF5007508FA0068
:100708007A08F50004300310F50CFF3E031D872B13
:100718007508F6007608F8007A080F39F5007508AC
:10072800F90078080A128A1137220A128A11790800
:100738000A128A113722080000300A128A111D2273
:100748000A128A119030F5009F30F400F40BAA2B9E
:10075800F50BAA2B03300A128A1137220A128A11C2
:100768002430F500E730F400F40BB82BF50BB82B68
:1007780003300A128A1137220A128A114F30F50003
:10078800FD30F400F40BC62BF50BC62B000003302C
:100798000A128A1137220A128A1102300A128A11A1
:1007A80037220A128A1102300A128A1137220A12D3
:1007B8008A1108300A128A1137220A128A11003067
:1007C8000A128A1137220A128A110C300A128A1167
:1007D80037220A128A1100300A128A1137220A12A5
:1007E8008A1106300A128A1137220800831203136D
:1007F800A101F31F0C2CF009F109F209F309F00A21
:100808000319F10A0319F20A0319F30AA101A10A4B
:10081800F71F1D2CF409F509F609F709F40A03195D
:10082800F50A0319F60A0319F70A0130F8007808DF
:10083800A1060030A5000030A4000030A30000305D
:10084800A20073087204710470040319722CA001C9
:10085800A00AF31B3D2C0130F8000310F00DF10D38
:10086800F20DF30DF80B312C0130F8007808A007D1
:100878002D2C0130F8000310A20DA30DA40DA50D19
:10088800F80B3F2C73087702031D542C720876026C
:10089800031D542C71087502031D542C7008740232
:1008A800031C652C7008F4027108031C710FF50213
:1008B8007208031C720FF6027308031C730FF70209
:1008C800221401300310F30CF20CF10CF00CFF3E73
:1008D800031D662C0130A002031D3D2C21080319BD
:1008E800802CA209A309A409A509A20A0319A30A2D
:1008F8000319A40A0319A50A2508F3002408F2001D
:100908002308F1002208F0000800831203132608C8
:10091800AA002708AB002808AC002908AD0006305B
:100928000310AA0DAB0DAC0DAD0DFF3E031D942CAD
:100938002D08F3002C08F2002B08F1002A08F0001B
:100948000030AE008030AF005130B0000130B1004F
:100958002608B2002708B3002808B4002908B50003
:1009680006300310B20DB30DB40DB50DFF3E031DD7
:10097800B52CB209B309B409B509B20A0319B30A07
:100988000319B40A0319B50A3208AE073308031865
:10099800330FCF2CD02CAF0734080318340FD52CC5
:1009A800D62CB00735080318350AB1073108F70007
:1009B8003008F6002F08F5002E08F4000A128A11F4
:1009C800FA230A128A117108FA007008F900013036
:1009D8007A02003003197902031C582D831203137D
:1009E8002608AA002708AB002808AC002908AD0093
:1009F80004300310AA0DAB0DAC0DAD0DFF3E031D69
:100A0800FD2C2D08F3002C08F2002B08F1002A0811
:100A1800F0000030AE008030AF005130B00001303F
:100A2800B1002608B2002708B3002808B400290836
:100A3800B50004300310B20DB30DB40DB50DFF3E73
:100A4800031D1E2DB209B309B409B509B20A031969
:100A5800B30A0319B40A0319B50A3208AE073308F2
:100A68000318330F382D392DAF0734080318340F06
:100A78003E2D3F2DB00735080318350AB107310858
:100A8800F7003008F6002F08F5002E08F4000A12C7
:100A98008A11FA237108FA007008F9008316031303
:100AA800181579089900080001307A0200300319F6
:100AB800790203180800790883160313990018129D
:100AC80083120313981783160313871707138312C8
:100AD80003131816831603139816080083120313BA
:100AE800BA01BB01BC01B901831603138801831243
:100AF800031386130A128A11A0230A128A110330DB
:100B080083120313B800CF30B7001C30B600B60B01
:100B18008B2DB70B8B2DB80B8B2D0000003083125B
:100B28000313A9000130A800C230A7000030A600B6
:100B38000A128A1189240A128A11033083120313B4
:100B4800B800CF30B7001C30B600B60BA92DB70BD4
:100B5800A92DB80BA92D00000A128A1112220A1217
:100B68008A11F401F40A01300A128A1156230A1272
:100B78008A115830F5008030F6000A128A111923BC
:100B88000A128A11F401F40A02300A128A11562351
:100B98000A128A119930F5008030F6000A128A117B
:100BA80019230A128A11473083120313B80022301E
:100BB800B7000D30B600B60BDF2DB70BDF2DB80B25
:100BC800DF2D0F3083120313B8000730B7009930B8
:100BD800B600B60BED2DB70BED2DB80BED2DF42DA2
:100BE800831203133A08031D552F0A128A11122281
:100BF8000A128A11F401F40A01300A128A115623E2
:100C08000A128A118930F5008030F6000A128A111A
:100C180019230A128A11033083120313B800CF3044
:100C2800B7001C30B600B60B172EB70B172EB80B33
:100C3800172E0000E1300A128A116D220A128A1159
:100C48000D300A128A1108220A128A110A128A1110
:100C5800FC210A128A11003A03192A2E0A128A1153
:100C6800FC210A128A11003A0319F42D0030F00011
:100C7800F1000830F2000030F3003D300A128A110A
:100C880051220A128A113D300A128A118F220A1241
:100C98008A111D3083120313B8000E30B7003630A6
:100CA800B600B60B552EB70B552EB80B552E0000B7
:100CB800F401F40A02300A128A1156230A128A1120
:100CC800763083120313B6003608F0003D300A125E
:100CD8008A11B6220A128A1170087104031D822E25
:100CE80083120313BA01BA0A6930F5008030F6009E
:100CF8000A128A1119230A128A11B22E3630F50007
:100D08008030F6000A128A1119230A128A111D303E
:100D180083120313B8000E30B7003630B600B60B96
:100D2800932EB70B932EB80B932E00003D30F50091
:100D38000030F6000A128A1119230A128A110F309C
:100D480083120313B8000730B7009930B600B60B0A
:100D5800AB2EB70BAB2EB80BAB2EB22E0F308312C7
:100D68000313B8000730B7009930B600B60BBA2E97
:100D7800B70BBA2EB80BBA2EC12EF42D0A128A114F
:100D880012220A128A11F401F40A01300A128A1195
:100D980056230A128A11C830F5008030F6000A126C
:100DA8008A1119230A128A11033083120313B80017
:100DB800CF30B7001C30B600B60BE02EB70BE02ED4
:100DC800B80BE02E0000D5300A128A116D220A12E3
:100DD8008A110A128A11FC210A128A11003A03198F
:100DE800ED2E0A128A11FC210A128A11003A0319FF
:100DF800552F0030F000F1000830F2000030F30009
:100E08003D300A128A1151220A128A113D300A1203
:100E18008A118F220A128A111D3083120313B80017
:100E28000E30B7003630B600B60B182FB70B182F98
:100E3800B80B182F0000F401F40A02300A128A11C4
:100E480056230A128A11763083120313B600360825
:100E5800F0003D300A128A11B6220A128A1170086F
:100E68007104031D3D2F83120313BB01BB0AB93064
:100E78003E2F4730F5008030F6000A128A111923F8
:100E88000A128A110F3083120313B8000730B70013
:100E98009930B600B60B4E2FB70B4E2FB80B4E2F0E
:100EA800552F831203133B08031DEE2FC22E0A127F
:100EB8008A1112220A128A11F401F40A01300A1264
:100EC8008A1156230A128A11A930F5008030F600DB
:100ED8000A128A1119230A128A1103308312031382
:100EE800B800CF30B7001C30B600B60B792FB70B5F
:100EF800792FB80B792F000001300A128A116D2260
:100F08000A128A110A128A11FC210A128A11003A5D
:100F18000319862F0A128A11FC210A128A11003A33
:100F28000319EE2F0030F000F1000830F200003015
:100F3800F3003D300A128A1151220A128A113D30FB
:100F48000A128A118F220A128A111D308312031382
:100F5800B8000E30B7003630B600B60BB12FB70B5D
:100F6800B12FB80BB12F0000F401F40A02300A12B5
:100F78008A1156230A128A11763083120313B60097
:100F88003608F0003D300A128A11B6220A128A1178
:100F980070087104031DD62F83120313BC01BC0A09
:100FA8007930D72F2430F5008030F6000A128A11E4
:100FB80019230A128A110F3083120313B80007305D
:100FC800B7009930B600B60BE72FB70BE72FB80B71
:100FD800E72FEE2F831203133C08031DE52D5B2F2B
:100FE800BD01BE01BF01C001C101C201C301C401ED
:080FF80083010A128A11722D17
:02400E00BA3FB7
:00000001FF
