:02000000232AB1
:0E000600213083120313FD00FD0B07280800B4
:100014000F3083120313FC004730FD00FD0B102842
:0A002400FC0B10280000000008008B
:06002E00000000000800C4
:1000340083160313B81B21288312861223288312E4
:1000440086168316381B2928831206122B2883123E
:1000540006168316B81A31288312861133288312A0
:1000640086158316381A3928831206113B28831201
:1000740006156D183F28061440280610861417200C
:1000840086108316B8194928831286124B288312C6
:1000940086168316381951288312061253288312A0
:1000A40006168316B8185928831286115B28831202
:1000B4008615831638186128831206116328831263
:1000C40006156D186728061468280610861417206C
:0E00D40086106D1C6F280A207028032008007B
:1000E200831203136D1083163708B8001A206D149B
:0200F200080004
:1000F400831603139818802800007A283308831283
:040104009900080056
:100108009628803083160313B300A928C030B300A3
:10011800A9289430B300A928D430B300A928803086
:10012800B300A928831603133308013A0319852855
:100138003308023A03198A283308033A03198D2829
:100148003308043A0319902893283403F00033083D
:10015800F0077008B3007008B8001A206D108316F5
:10016800B60136083507840000080319C428360884
:10017800350784000008B70071208316B60AB52831
:0601880083126D14080053
:10018E00831203131A08F100981CCF2818121816A0
:06019E007108F0000800EA
:0E01A4000030831203138C1A0130F0000800A3
:1001B2000A3083160313B3007A200D308316B3007E
:0401C2007A20080097
:1001C600831603133008B3003108B4002F08B500B6
:0401D6008420080079
:1001DA00831203136E0884000008031901296E08AC
:1001EA0084000008F1006F08840071080006031DEE
:1001FA000129EE0AEF0AED286E0884000008F000D3
:10020A006F0884000008F002F101031CF1030800E2
:10021A0083160313AF0183126E0884000008EF00EF
:10022A006F08003A031926296F088316B3007A204B
:10023A008316AF0A2F0883126E0784000008EF00A6
:04024A00152908006A
:0C024E00013083160313B8001A200800CA
:10025A0083120313EF018316B201310803197829B7
:10026A003108FF3A03193A29B103D2207008003A3B
:10027A00031D40293A29C7207008EE006F0883162B
:10028A002F078400700880008312EF0A8316320851
:10029A0030078400000883126E06031D572983164F
:1002AA00B20A62298316B201300884000008831258
:1002BA006E06031D62298316B20A831632083007B6
:1002CA0084000008003A031D7729320883126F025E
:1002DA00F000F101031CF103700883162F07840054
:0E02EA0080017B2932292F0884008001080042
:0E02F800831203136B088A006A088200080054
:10030600203083120313EE000D21D920D22070086D
:10031600031D8E2989296C088316AF005930B00059
:100326000230B1002D2127215630EE006C08EF0077
:10033600ED2000307106031DA22900307006031D52
:10034600AF295B308316AF000130B0000130B10039
:10035600E3200130E900B829A0308316AF00013050
:0C036600B0000130B100E320E901080004
:1003720083160313861006100611861106128612C2
:1003820083128610061086120612861106110A20A2
:100392000A200A20861506158614172086100A20C0
:1003A2008614172086100A208614172086100A2029
:1003B20006118614172086100A208614172086102C
:1003C200861186168614172086100A2086120615B4
:1003D20086141720861006118614172086100A200C
:1003E20086141720861006158614172086100A20F8
:1003F200061186141720861086160616861506150F
:0C0402008614172086100A206D140800D4
:10040E007C218A110A128000840AEA0A0319EB0A77
:08041E00F003031D072A08008A
:100426008316031398169030831298008316871745
:10043600071383128C1E222A1A08F0001C2A0800B1
:10044600EA220F30831603139F008B013330990085
:10045600181513220B30FB002630FC005D30FD0022
:10046600FD0B332AFC0B332AFB0B332A000000005A
:10047600FF30831685008601C0308700B9210C3015
:100486008316B8001A20272133308316AF000130B7
:10049600B0000130B100E32023308316AF000230F4
:1004A600B0000130B100E3201530FB004B30FC00FA
:1004B600BE30FD00FD0B5D2AFC0B5D2AFB0B5D2AA1
:1004C600000027216908013A03197F2A4430831660
:1004D600AF000130B0000130B100E32083211530B8
:1004E600FB004B30FC00BE30FD00FD0B782AFC0BF8
:1004F600782AFB0B782A00006908003A03198A2A31
:100506005508031D862A051C882A851D8A2A652A00
:020516008B2A2E
:1005D40020308400493083120313F0009130EA0084
:1005E4000230EB000722A03084000F308312031383
:1005F400F000DA30EA000230EB00072269308400B0
:10060400013083120313F000E930EA000230EB00FA
:0406140007220800B1
:06052200413454340034A2
:100528005334543441345434553453343A342034E5
:100538004F34663466346C3469346E346534003450
:100548004434453456344934433445343A342034F9
:100558004D3449346E34633420344434653476344D
:0205680000345D
:10056A00533465346E346434203441345434203482
:10057A0043346F346D346D3461346E3464342E34E4
:02058A0000343B
:02058C00003439
:06058E004F344B34003431
:0405940000340034FB
:1005980045345334503420344D346F346434753416
:0C05A8006C34653420344F344B34003484
:1005B40045345334503420344D346F3464347534FA
:0E05C4006C34653420344234613464340034C5
:0205D2000034F3
:02400E004A2F37
:00000001FF
