:02000000A52A2F
:06000600000000000800EC
:0E000C00213083120313FD00FD0B0A280800AB
:10001A000F3083120313FC004730FD00FD0B132839
:0A002A00FC0B132800000000080082
:1000340083120317EF1B20288612212886166F1BB4
:100044002528061226280616EF1A2A2886112B2898
:1000540086156F1A2F2806113028061583160313E8
:100064006F18372883120614392883120610861451
:10007400032086100317EF1941288612422886169A
:100084006F194628061247280616EF184B288611C2
:100094004C2886156F18502806115128061583160A
:1000A40003136F185828831206145A288312061053
:1000B40086140320861083166F1C62280D20632883
:0400C400062008000A
:1000C800831603136F10831203176E08EF001A20AC
:0600D80083166F140800FE
:1000DE00831603139818752800006F2883120317D0
:0800EE006A08031399000800E1
:1000F6008D28803083120317EA00A028C030EA005A
:10010600A0289430EA00A028D430EA00A028803045
:10011600EA00A028831203176A08013A03197C280B
:100126006A08023A031981286A08033A03198428DF
:100136006A08043A031987288A286B03F0006A08BC
:10014600F0077008EA007008EF001A2083166F1097
:1001560083120317ED016D086C078400000803196C
:10016600BE286D086C0784000008EE006420831228
:0E0176000317ED0AAE28831603136F1408005A
:10018400831203176808EA006908EB006708EC00AB
:040194007B200800C4
:100198000A3083120317EA006F200D300317EA00B4
:0401A8006F200800BC
:0E01AC000030831203138C1A0130F00008009B
:1001BA00831203131A08F100981CE528181218165E
:0601CA007108F0000800BE
:1001D00083120317E901670884000008E800680833
:1001E000003A0319FE286808EA006F200317E90A9D
:0E01F0006908670784000008E800EF2808008F
:0E01FE00831603136D088A006C088200080047
:0C020C00013083120317EF001A200800D5
:100218000621CC203F300317E7000130E800013009
:10022800E900C220203083120317E700E820CC2021
:10023800D6207008031D21291C29DD20700883168B
:10024800EE0070084F3A031D36295E3083120317FB
:10025800E7000230E8000130E900C22001308312D3
:10026800EA0041298312B1300317E7000230E800A1
:100278000130E900C2208312EA011F30FB0071300F
:10028800FC001E30FD00FD0B4729FC0B4729FB0B2A
:06029800472900000800E8
:10029E000621BE300317E7000130E8000130E90007
:1002AE00C2206B3083120317E700E820CC20D62043
:1002BE007008031D63295E29DD2070088316EE0089
:1002CE0070084F3A031D7829CC3083120317E700CC
:1002DE000230E8000130E900C22001308312EE0046
:1002EE00832983124F300317E7000230E8000130F4
:1002FE00E900C2208312EE011F30FB007130FC00BA
:10030E001E30FD00FD0B8929FC0B8929FB0B892969
:04031E0000000800D3
:100322000621CC20A0300317E7000130E80001309D
:10033200E900C220AA29C53083120317E700E8208A
:10034200C529B930E700E820C529AD30E700E8202B
:10035200C5298312031700306606031DB229013036
:10036200650603199C2900306606031DBA2902306E
:1003720065060319A22900306606031DC22903304F
:1003820065060319A629A629CC20D6207008031DCC
:10039200CB29C629DD2070088316EE0070084F3A7B
:1003A200031DDF291F3083120317E7000230E80024
:1003B2000130E900C2200130EB00E929103083123C
:1003C2000317E7000230E8000130E900C220EB0128
:1003D2001F30FB007130FC001E30FD00FD0BEF29C9
:0C03E200FC0BEF29FB0BEF2900000800CA
:1003EE000621CC20DA300317E7000130E800013097
:1003FE00E900C2202D3083120317E700E820CC203D
:10040E00D6207008031D0C2A072ADD2070088316DB
:10041E00EE0070084F3A031D212A5930831203173C
:10042E00E7000230E8000130E900C22001308312FB
:10043E00EA002C2A83124C300317E7000230E80042
:10044E000130E900C2208312EA011F30FB00713037
:10045E00FC001E30FD00FD0B322AFC0B322AFB0B7A
:06046E00322A0000080024
:1004740083160313861006100611861106128612BF
:1004840083128610061086120612861106110D209C
:100494000D200D20861506158614032086100D20C8
:1004A4008614032086100D208614032086100D2048
:1004B40006118614032086100D208614032086104E
:1004C400861186168614032086100D2086120615C2
:1004D40086140320861006118614032086100D202E
:1004E40086140320861006158614032086100D201A
:1004F4000611861403208610861606168615061520
:0E0504008614032086100D2083166F14080045
:10051200FF208A110A128000840AEC0A0319ED0AEC
:08052200F003031D892A080003
:10052A008316031398169030831298008316871740
:10053A00071383128C1EA42A1A08F0009E2A0800A8
:10054A006C240F30831603139F008B0133309900FC
:10055A00181595221530FB004B30FC00BE30FD000B
:10056A00FD0BB52AFC0BB52AFB0BB52A0000FF30A0
:10057A00831685008601C03087003A221530FB00B9
:10058A004B30FC00BE30FD00FD0BC92AFC0BC92A0A
:10059A00FB0BC92A00000C3083120317EF001A2044
:1005AA000621A0300317E7000130E8000130E90016
:1005BA00C2201F30FB007130FC001E30FD00FD0B15
:1005CA00E42AFC0BE42AFB0BE42A00009030831295
:1005DA000317E7000230E8000130E900C220333097
:1005EA00FB00BB30FC00DF30FD00FD0BFA2AFC0BE0
:1005FA00FA2AFB0BFA2A00000000803083128606D2
:10060A000B30FB002630FC005D30FD00FD0B0B2B90
:10061A00FC0B0B2BFB0B0B2B000000006E08031DC1
:10062A00182B4F212E2B83166B08031D242B033006
:10063A0083120317E5000030E60091212E2B831266
:10064A006A08031D2A2BF7212E2B6F08031D2E2B58
:10065A000C218312051C312B851D332B022B342BC5
:1008D800203084004A3083120313F0008F308316CF
:1008E800EC000330ED008922A03084001E30831212
:1008F800F00039308316EC000430ED0089226A30AC
:10090800840001308312F0006B308316EC00043051
:10091800ED008922BE3084000E308312F00057307B
:100928008316EC000430ED0089226B30840004301B
:100938008312F00065308316EC000430ED00892244
:10094800CC3084001F308312F0001A308316EC007C
:100958000430ED008922103083178400553083124B
:10096800F0003A308316EC000330ED00892283133F
:100978006F30840001308312F0006A308316EC0077
:100988000430ED008922EB30840001308312F0003E
:1009980069308316EC000430ED008922903083170B
:1009A800840041308312F000D9308316EC00033004
:0809B800ED0089228313080001
:1006740045345334503420344F3450344D344F3493
:0E06840044344534203442346134643400344C
:1006920045345334503420344F3450344D344F3475
:0C06A2004434453420344F344B340034D1
:1006AE00413454342B34433457344A344134503467
:1006BE003D344D3449346E34633420344D346F340C
:1006CE00623469346C3465342C346F346C34753464
:0E06DE00773461347334653475346E3400340F
:1006EC0045345334503420345734693446346934E7
:0A06FC0020344234613464340034C9
:1007060045345334503420345734693446346934CC
:0807160020344F344B34003451
:10071E00413454342B34433457344A3441345034F6
:10072E003D344D3449346E34633420344D346F349B
:10073E00623469346C3465342C346F346C347534F3
:0E074E00773461347334653475346E3400349E
:10075C004434653476346934633465342D3441342F
:10076C00503449342034533479346E346334003487
:10077C0045345334503420344D346F346434753430
:0E078C006C34653420344234613464340034FB
:10079A004534533450342034573469344634693438
:0807AA0020344F344B340034BD
:1007B2005334543441345434553453343A34203459
:1007C2004F34663466346C3469346E3465340034C4
:1007D20053346534743420344F34703420344D34FF
:0A07E2006F34643465342E340034A3
:1007EC00413454342B34433457344D344F34443423
:0807FC0045343D343334003470
:10080400413454342B34433457344D344F3444340A
:0808140045343D343234003458
:10081C00413454342B34433457344D344F344434F2
:08082C0045343D343134003441
:1008340045345334503420344D346F346434753477
:0C0844006C34653420344F344B340034E5
:100850004534533450342034573469344634693481
:10086000203443346F346E346E34653463347434FE
:02087000003452
:100872004434453456344934433445343A342034CC
:100882004D3449346E346334203444346534763420
:02089200003430
:10089400453453345034203457346934463469343D
:0A08A400203442346134643400341F
:1008AE00533465346E34643420344134543420343B
:0C08BE0043346F346D346D342E3400343C
:0608CA00413454340034F7
:0208D0000034F2
:0208D2000034F0
:0208D4000034EE
:0208D6000034EC
:02400E004A2F37
:00000001FF
