:02000000172ABD
:06000600000000000800EC
:10000C000F3083120313FC004730FD00FD0B0C284E
:0A001C00FC0B0C2800000000080097
:0E002600213083120313FD00FD0B1728080084
:1000340083120317E51B2028861221288616651BC8
:100044002528061226280616E51A2A2886112B28A2
:100054008615651A2F2806113028061583160313F2
:100064006918372883120614392883120610861457
:10007400032086100317E5194128861242288616A4
:1000840065194628061247280616E5184B288611D6
:100094004C28861565185028061151280615831614
:1000A400031369185828831206145A288312061059
:1000B4008614032086108316691C62280620632890
:0400C40013200800FD
:1000C8008316031369106F0883120317E5001A20BB
:0600D80083166914080004
:1000DE00831603139818752800006F286E08831274
:0400EE00990008006D
:1000F2008B28803083120317E2009E28C030E20072
:100102009E289430E2009E28D430E2009E2880305F
:10011200E2009E28831203176208013A03197A2823
:100122006208023A03197F286208033A03198228F7
:100132006208043A0319852888286303F0006208DC
:10014200F0077008E2007008E5001A2083166910B3
:10015200EE016E0883120317640784000008031976
:10016200C028831603136E088312031764078400E2
:10017200000883160313EF006420EE0AAA288316F0
:06018200031369140800DC
:0E0188008316031368088A00670882000800C7
:0E0196000030831203138C1A0130F0000800B1
:1001A40083160313ED016B0884000008EC006C084F
:1001B400003A0319E8286C08EE006F208316ED0A54
:0E01C4006D086B0784000008EC00D9280800C5
:1001D2000A3083160313EE006F200D308316EE00F3
:0401E2006F20080082
:1001E600831203131A08F100981CFB28181218161C
:0601F6007108F000080092
:0C01FC00013083120317E5001A200800F0
:10020800831603136C0883120317E2008316031383
:100218006D0883120317E300831603136B08831218
:080228000317E400792008002F
:10023000E920272920308316EB00D22035295630BB
:10024000EB00D22035294A30EB00D2203529831625
:100250006A08013A03191A296A08023A03191F2980
:100260006A08033A031923292329E920CB207008BF
:10027000031D3B293629F32070088316E600FE2073
:10028000831666084F3A031D4F293C30EB000130BE
:10029000EC000130ED0004210130E400572940302A
:1002A000EB000130EC000130ED000421E401080016
:1002B000E920A0308316EB00D220E920CB20700883
:1002C000031D63295E29F32070088316E600FE20D3
:1002D000831666084F3A031D78296230EB0001301F
:1002E000EC000130ED00042101308312BB008229B3
:1002F0002C308316EB000130EC000130ED000421BE
:060300008312BB0108009E
:10030600831603138610061006118611061286122E
:100316008312861006108612061286110611062012
:10032600062006208615061586140320861006204C
:1003360086140320861006208614032086100620C5
:1003460006118614032086100620861403208610C4
:100356008611861686140320861006208612061538
:1003660086140320861006118614032086100620A4
:100376008614032086100615861403208610062090
:10038600061186140320861086160616861506158F
:0E0396008614032086100620831669140800C2
:1003A40083160313981690308312980083168717C8
:1003B400071383128C1EE1291A08F000DB290800B8
:1003C400E92021308316EB00D220E920CB207008ED
:1003D400031DED29E829F32070088316E600FE20AA
:1003E400831666084F3A031D012A9030EB00013052
:1003F400EC000130ED0004210130E5000A2A5130FF
:10040400EB000130EC000130ED0004210130E50087
:020414000800DE
:10041600C4208A110A128000840AE70A0319E80A2E
:08042600F003031D0B2A08007E
:10042E00CE230F30831603139F008B0133309900B8
:10043E001815D2211530FB004B30FC00BE30FD00EC
:10044E00FD0B272AFC0B272AFB0B272A0000FF3067
:10045E00831685008601C030870083210B30FB0098
:10046E002630FC005D30FD00FD0B3B2AFC0B3B2AC9
:10047E00FB0B3B2A000000000C3083120317E50033
:10048E001A20FE2010308316EB000130EC000130F4
:10049E00ED0004210B30FB002630FC005D30FD002A
:1004AE00FD0B572AFC0B572AFB0B572A00000000A6
:1004BE00C230EB000230EC000130ED0004211530AB
:1004CE00FB004B30FC00BE30FD00FD0B6C2AFC0B1C
:1004DE006C2AFB0B6C2A0000FE203B08031D8D2AA4
:1004EE00B2308316EB000130EC000130ED00042138
:1004FE0058211530FB004B30FC00BE30FD00FD0BCB
:10050E00862AFC0B862AFB0B862A00003B08031961
:10051E00CE2AFE2083166408031DAC2AA330EB00FE
:10052E000130EC000130ED0004210330EA00182107
:10053E001530FB004B30FC00BE30FD00FD0BA52A34
:10054E00FC0BA52AFB0BA52A0000FE2083166508CE
:10055E00031DC62AD330EB000130EC000130ED0054
:10056E000421E2211530FB004B30FC00BE30FD00B3
:10057E00FD0BBF2AFC0BBF2AFB0BBF2A0000520843
:10058E00031DC92A8312051CCC2A851DCE2A732A67
:02059E00CF2A62
:10079C0020308400503083120313F000D5308316C0
:1007AC00E7000230E8000B22A030840044308312B2
:1007BC000313F00025308316E7000330E8000B220A
:1007CC00103083178400413083120313F00069301A
:1007DC008316E7000330E8000B228313E430840017
:1007EC00013083120313F000CC308316E700033082
:1007FC00E8000B225130831784001130831203134D
:10080C00F000AA308316E7000330E8000B228313B4
:10081C00E5308400013083120313F000CB308316D3
:10082C00E7000330E8000B2290308317840010306F
:10083C0083120313F000BB308316E7000330E8008B
:06084C000B2283130800DB
:1005AA00413454342B34433457344D344F34443467
:0805BA0045343D3431340034B6
:1005C20045345334503420344D346F3464347534EC
:0E05D2006C34653420344234613464340034B7
:0205E0000034E5
:1005E20045345334503420344F3450344D344F3426
:0C05F200443445343A34203433340034AF
:1005FE00413454342B34433457344D344F34443413
:08060E0045343D34333400345F
:10061600413454342B34433457344D344F344434FA
:0806260045343D343234003448
:10062E0045345334503420344D346F34643475347F
:0C063E006C34653420344F344B340034ED
:06064A0041345434003479
:1006500045345334503420344F3450344D344F34B7
:0E06600044344534203453344534543400348B
:10066E00533465346E34643420344134543420347D
:10067E0043346F346D346D3461346E34643400340D
:10068E005334543441345434553453343A3420347E
:10069E004F34663466346C3469346E3465340034E9
:0206AE00003416
:1006B0004534533450342034573449344634493463
:1006C000203443344F344E344E3445344334543460
:0206D0000034F4
:1006D2004434453456344934433445343A3420346E
:1006E2004D3449346E3463342034443465347634C2
:0206F2000034D2
:1006F400413454342B34433457344A344134503421
:100704003D344D3449346E34633420344D346F34C5
:10071400623469346C3465342C346F346C3475341D
:0E072400773461347334653475346E340034C8
:1007320045345334503420344F3450344D344F34D4
:10074200443445343A3420344634413449344C3408
:02075200003471
:100754005734693446346934203443346F346E3446
:100764006E34653463347434203442346134643414
:0207740000344F
:100776005734693446346934203443346F346E3424
:100786006E3465346334743420344F344B3400345F
:0207960000342D
:0207980000342B
:02400E004A2F37
:00000001FF
