:02000000552980
:06000600000000000800EC
:0E000C00213083120313FD00FD0B0A280800AB
:10001A000F3083120313FC004730FD00FD0B132839
:0A002A00FC0B132800000000080082
:1000340083120313E31B2028861221288616631BD0
:100044002528061226280616E31A2A2886112B28A4
:100054008615631A2F2806113028061558183428D7
:10006400061435280610861403208610E3193C284C
:1000740086123D2886166319412806124228061660
:10008400E318462886114728861563184B2806115D
:100094004C280615581850280614512806108614A2
:1000A40003208610581C58280D20592806200800C3
:1000B400831603139818602800005A2883126208D4
:0400C4009900080097
:1000C8008312031358106208E3001A20581408001A
:1000D8007E28803083120313DE009128C030DE00B2
:1000E80091289430DE009128D430DE0091288030A9
:1000F800DE009128831203135E08013A03196D2864
:100108005E08023A031972285E08033A0319752833
:100118005E08043A031978287B285F03F0005E081C
:10012800F0077008DE007008E3001A205810E1019B
:1001380061086007840000080319AA28610860079D
:1001480084000008E2006420E10A9C285814080092
:0E015800831203135A088A0059088200080017
:1001660083120313E0015E0884000008DF005F08C5
:10017600003A0319C8285F08E2005A20E00A60081E
:0C0186005E0784000008DF00BA280800B3
:100192000A3083120313E2005A200D30E2005A2083
:0201A200080053
:1001A400433083120313DE00B320C9200130D7008B
:0201B400080041
:1001B600831203135C08DE005D08DF005B08E000C5
:0401C6006C200800A1
:0C01CA00013083120313E3001A20080028
:1001D6008316031398169030831298008316871798
:1001E600071383128C1EFA281A08F000F428080058
:1001F600AC208A110A128000840AD90A0319DA0A85
:08020600F003031DFB280800B2
:10020E008316031386100610061186110612861227
:10021E0083128610061086120612861106110D2004
:10022E000D200D20861506158614032086100D2030
:10023E008614032086100D208614032086100D20B0
:10024E0006118614032086100D20861403208610B6
:10025E00861186168614032086100D20861206152A
:10026E0086140320861006118614032086100D2096
:10027E0086140320861006158614032086100D2082
:10028E000611861403208610861606168615061588
:0C029E008614032086100D205814080060
:1002AA00FC210F30831603139F008B013330990012
:1002BA001815EB200630FB001330FC00AD30FD00B2
:1002CA00FD0B6529FC0B6529FB0B65290000000065
:1002DA00FF30831685008601C030870007210C3065
:1002EA00E3001A20E5204630DB000130DC00013053
:1002FA00DD00DB203330DB000230DC000130DD00C2
:10030A00DB201030FB003930FC000D30FD00FD0B06
:10031A008C29FC0B8C29FB0B8C2900000000E520A2
:10032A005708013A0319AF292130DB000130DC00FC
:10033A000130DD00DB20D2201030FB003930FC0018
:10034A000D30FD00FD0BA729FC0BA729FB0BA729E4
:10035A00000000005708003A0319BD292008031DB0
:10036A00B6293208031DB929051CBB29851DBD29DB
:04037A009529BE29DA
:1003F80020308400383083120313F000C430D90051
:080408000130DA00FB200800BE
:0203880000343F
:10038A00533465346E346434203441345434203464
:10039A0043346F346D346D3461346E3464342E34C6
:0203AA0000341D
:0203AC0000341B
:1003AE005334543441345434553453343A34203461
:1003BE004F34663466346C3469346E3465340034CC
:0603CE00413454340034F8
:1003D4004434453456344934433445343A3420346F
:1003E4004D3449346E3463342034443465347634C3
:0203F4000034D3
:0203F6000034D1
:02400E004A2F37
:00000001FF
